:020000020000FC
:1000000012C03F065B4F666D7D477F6F777C395E20
:10001000790001FF0203FF04FF0506FF07FF08093F
:10002000FF0AFF000BFF0FEF07B908EF0AB901E065
:1000300004B910E000E000C007E730E00E943C0097
:100040000FEF0016B1F40FE635E00E943C000FEF11
:10005000001679F40FE53AE00E943C000FEF00161D
:1000600041F40FE33FE00E943C000FEF001609F45B
:10007000E3CF0E944A00E0CFE2E1F0E00BB949B1E2
:1000800007E04023430F435000E0E40FF01FC89502
:10009000102D0895EF93FF930F9204D00F90FF91CE
:1000A000EF910895E2E0F0E00FE0102300E0E10FAF
:1000B000F01FC895009408B800E0002D0074001FE0
:1000C000001F001F05B9089524E6139501D0EACF5B
:0800D00021502030E9F7F8CFC0
:00000001FF
