:020000020000FC
:1000000012C03F065B4F666D7D477F6F777C395E20
:10001000790001FF0203FF04FF0506FF07FF08093F
:10002000FF0AFF000BFF0FEF07B908EF0AB910E056
:1000300000E000C007E730E00E943A000FEF001632
:10004000B1F40FE635E00E943A000FEF001679F4A4
:100050000FE53AE00E943A000FEF001641F40FE37B
:100060003FE00E943A000FEF001609F4E3CF0E9430
:100070004800E0CFE2E1F0E00BB949B107E04023EE
:10008000430F435000E0E40FF01FC895102D089572
:10009000EF93FF930F9204D00F90FF91EF9108958B
:1000A000E2E0F0E00FE0102300E0E10FF01FC89560
:1000B000009408B8089524E6139501D0F1CF21509B
:0600C0002030E9F7F8CF43
:00000001FF
