:020000020000FC
:1000000012C03F065B4F666D7D077F6F777C395E60
:10001000790001FF0203FF04FF0506FF07FF08093F
:10002000FF0AFF000BFF0FEF07B908EF0AB901E065
:1000300004B910E000E000C007E720E00E943C00A7
:100040000FEF0016B1F40FE625E00E943C000FEF21
:10005000001679F40FE52AE00E943C000FEF00162D
:1000600041F40FE32FE00E943C000FEF001609F46B
:10007000E3CF0E944A00E0CFE2E1F0E00BB939B1F2
:1000800007E03023320F335000E0E30FF01FC89534
:10009000102D0895EF93FF930F921ED00F90FF91B4
:1000A000EF910895E2E0F0E010D00FE0102300E0BF
:1000B000E10FF01FC895009408B800E0002D00740F
:1000C000001F001F001F05B9089501E004B903B126
:1000D00006700795100F0895E5DF103009F40895B4
:1000E00009D008D007D006D005D004D003D002D064
:1000F0001A95F2CF48E05DE76AEF6A950000E9F7EC
:0A0100005A95D1F74A95B9F7089512
:00000001FF
